:03000000020354A4
:0C035400787FE4F6D8FD75815102039B10
:100556007FBFDFEFF7FBFDFE3F065B4F666D7D0756
:100566007F6F8077395E797176385C733E7C58543C
:020576001C6EF9
:100533000A2B30302E303023000000000A353030D3
:10054300303030303030230002290000013F0101F8
:0205530040085E
:10059900E4FDFCE4FBFAC3EB9FEA9E50070BBB00AA
:0F05A900010A80F20DBD00010CED64724C70E48C
:0105B8002220
:0B060D00EF1FAC0670011E4C70F622BF
:10057800E4FEEFC4131313540124FF92B4EF25E0F3
:10058800FFC2B600D2B6000EBE08E7C2B500D2B5AB
:010598002240
:0A03E0008B418A4289438C448D450D
:1003EA00E4F54878497C00FD7BFF7A057956FE7F63
:1003FA0008120286E4F546F547AE44AF457C007D17
:10040A00031202D9EF2401FFE43EFEC3E5479FE54C
:10041A00469E5037E4F54874492548F8E6F580AB1E
:10042A0041AA42A9438548827583001202ACFF1291
:10043A00057800E4FF1205780548E548C3940840AA
:0B044A00D60547E54770B2054680AEBE
:010455002284
:0A0003008B088A09890A8C0B8D0C0A
:10000D00780D7C007D007BFF7A05795E7E007F1A7E
:10001D00120286E4F527F528E50C450B7003020165
:10002D00B5E4F527F528AB08AA09A90A8528827534
:10003D0083001202ACFF642370030201AAE527B40A
:10004D000800504D900058F82828730200700200E7
:10005D007402007802007C02008002008802009089
:10006D00020098D2A4800ED2A48012D2A48016D2FF
:10007D00A4801AC2A4D2A3D2A28016C2A4D2A3C2B3
:10008D00A2800EC2A4C2A3D2A28006C2A4C2A3C2E1
:10009D00A2EF12032E01272E00F43000FA3100FFDB
:1000AD0032010433010934010E35011336011837BD
:1000BD00011D38012239012C41013143013B45011C
:1000CD004046014548014A4C015450015955015EC5
:1000DD006201636301366401686E014F6F016D75D6
:1000ED0001727900000177850D8002017A850E80FD
:1000FD00807B850F80807685108080718511808052
:10010D006C85128080678513808062851480805D88
:10011D0085158080588516808053851780804E8583
:10012D00188080498519808044851A80803F851B01
:10013D0080803A851C808035851D808030851E80AD
:10014D00802B851F808026852080802185218080C1
:10015D001C85228080178523808012852480800D48
:10016D0085258080088526808003E4F5807F147EB8
:10017D000012060D852882758300A3AB08AA09A974
:10018D000A1202ACB42E0C8517807F147E00120665
:10019D000D052805270528E4F580020033E50C152B
:0801AD000C7002150B02002585
:0101B5002227
:10045600E4F55175900FE590640F605A7F147E00A5
:10046600120599E590640F605075900FAF90EF24D8
:10047600F5601024FE601114601324077012755184
:1004860001800D7551028008755103800375510472
:100496007590F0AF90EF2450600C24E0600C24F0CF
:1004A600600C247080137404800674088002740C37
:0B04B6002551F5518003E4F551AF51D2
:0104C1002218
:04062A007F02DFFE6E
:01062E0022A9
:04062F007F04DFFE67
:0106330022A4
:05061800007F0FDFFE72
:01061D0022BA
:040634007F19DFFE4D
:01063800229F
:05061E00007F1CDFFE5F
:0106230022B4
:05062400007FE3DFFE92
:0106290022AE
:1005F800E4FFD2B70000C2B7120624D2B712061819
:04060800A2B733FF63
:01060C0022CB
:0205B900AE078B
:1005BB007D08EDC394085015C2B712062FEE1392A7
:0D05CB00B712061ED2B7EEC313FE0D80E579
:0105D8002200
:1005D900E4FEFDC2B70000D2B7000030B7034305FF
:0E05E90080EDC313FD1206340EBE08E7AF0509
:0105F70022E1
:10050400E4F9FC1205F87FCC1205B97F441205B951
:100514007F207E031205991205F87FCC1205B97F5E
:0E052400BE1205B91205D9AC071205D9AF04F5
:0105320022A6
:1004C200753F011205047529008F2A754007E52A38
:1004D200553F600974352540F8763180077435251B
:1004E20040F87630E53F25E0F53F1540C3E540642E
:1004F20080948050D97B007A0079357DF47C0102AA
:020502000003F4
:100360000204C2E493A3F8E493A34003F68001F2ED
:1003700008DFF48029E493A3F85407240CC8C3339E
:10038000C4540F4420C8834004F456800146F6DF6D
:10039000E4800B0102040810204080900533E47EC5
:1003A000019360BCA3FF543F30E509541FFEE49362
:1003B000A360010ECF54C025E060A840B8E493A329
:1003C000FAE493A3F8E493A3C8C582C8CAC583CA54
:1003D000F0A3C8C582C8CAC583CADFE9DEE780BE0C
:0105550000A5
:1001B600E709F608DFFA8046E709F208DFFA803E2B
:1001C60088828C83E709F0A3DFFA8032E309F60818
:1001D600DFFA8078E309F208DFFA807088828C8380
:1001E600E309F0A3DFFA806489828A83E0A3F60834
:1001F600DFFA805889828A83E0A3F208DFFA804C0E
:1002060080D280FA80C680D4806980F280338010E4
:1002160080A680EA809A80A880DA80E280CA80334D
:1002260089828A83ECFAE493A3C8C582C8CCC583C5
:10023600CCF0A3C8C582C8CCC583CCDFE9DEE78095
:100246000D89828A83E493A3F608DFF9ECFAA9F014
:10025600EDFB2289828A83ECFAE0A3C8C582C8CC6A
:10026600C583CCF0A3C8C582C8CCC583CCDFEADE83
:10027600E880DB89828A83E493A3F208DFF980CCE5
:1002860088F0EF60010E4E60C388F0ED2402B404DE
:100296000050B9F582EB2402B4040050AF23234585
:0602A600822390020673A2
:1002AC00BB010CE58229F582E5833AF583E0225007
:1002BC0006E92582F8E622BBFE06E92582F8E22251
:0D02CC00E58229F582E5833AF583E493226B
:1002D900BC000BBE0029EF8DF084FFADF022E4CC09
:1002E900F875F008EF2FFFEE33FEEC33FCEE9DECD2
:1002F900984005FCEE9DFE0FD5F0E9E4CEFD22ED18
:10030900F8F5F0EE8420D21CFEADF075F008EF2F61
:10031900FFED33FD4007985006D5F0F222C398FD52
:050329000FD5F0EA22EF
:10032E00D083D082F8E4937012740193700DA3A35E
:10033E0093F8740193F5828883E473740293686072
:06034E00EFA3A3A380DF72
:00000001FF
