:03000000020354A4
:0C035400787FE4F6D8FD75814502039B1C
:1004F2007FBFDFEFF7FBFDFE3F065B4F666D7D07BB
:100502007F6F8077395E797176385C733E7C5854A0
:020512001C6E5D
:100555000A3936362300000000000000014300027E
:0305650044000748
:10053500E4FDFCE4FBFAC3EB9FEA9E50070BBB000E
:0F054500010A80F20DBD00010CED646E4C70E4F4
:010554002284
:0B056900EF1FAC0670011E4C70F62264
:10051400E4FEEFC4131313540124FF92B4EF25E057
:10052400FFC2B600D2B6000EBE08E7C2B500D2B50F
:0105340022A4
:0A03E0008B298A2A892B8C2C8D2D85
:1003EA00E4F53078317C00FD7BFF7A0479F2FE7FF8
:1003FA0008120286E4F52EF52FAE2CAF2D7C007D77
:10040A00031202D9EF2401FFE43EFEC3E52F9FE564
:10041A002E9E5037E4F53074312530F8E6F580AB7E
:10042A0029AA2AA92B8530827583001202ACFF12F1
:10043A00051400E4FF1205140530E530C3940840A2
:0B044A00D6052FE52F70B2052E80AE06
:010455002284
:0A0003008B088A09890A8C0B8D0C0A
:10000D00780D7C007D007BFF7A0479FA7E007F1AE3
:10001D00120286E4F527F528E50C450B7003020165
:10002D00B5E4F527F528AB08AA09A90A8528827534
:10003D0083001202ACFF642370030201AAE527B40A
:10004D000800504D900058F82828730200700200E7
:10005D007402007802007C02008002008802009089
:10006D00020098D2A4800ED2A48012D2A48016D2FF
:10007D00A4801AC2A4D2A3D2A28016C2A4D2A3C2B3
:10008D00A2800EC2A4C2A3D2A28006C2A4C2A3C2E1
:10009D00A2EF12032E01272E00F43000FA3100FFDB
:1000AD0032010433010934010E35011336011837BD
:1000BD00011D38012239012C41013143013B45011C
:1000CD004046014548014A4C015450015955015EC5
:1000DD006201636301366401686E014F6F016D75D6
:1000ED0001727900000177850D8002017A850E80FD
:1000FD00807B850F80807685108080718511808052
:10010D006C85128080678513808062851480805D88
:10011D0085158080588516808053851780804E8583
:10012D00188080498519808044851A80803F851B01
:10013D0080803A851C808035851D808030851E80AD
:10014D00802B851F808026852080802185218080C1
:10015D001C85228080178523808012852480800D48
:10016D0085258080088526808003E4F5807F147EB8
:10017D0000120569852882758300A3AB08AA09A919
:10018D000A1202ACB42E0C8517807F147E00120566
:10019D0069052805270528E4F580020033E50C15CF
:0801AD000C7002150B02002585
:0101B5002227
:10045600E4F50875900FE590640F605A7F147E00EE
:10046600120535E590640F605075900FAF90EF243C
:10047600F5601024FE6011146013240770127508CD
:1004860001800D750802800875080380037508044D
:100496007590F0AF90EF2450600C24E0600C24F0CF
:1004A600600C247080137404800674088002740C37
:0B04B6002508F5088003E4F508AF08F6
:0104C1002218
:1004C2007B007A007939AD45AC4412000312045620
:1004D200EF60ED1204568F43E54375F00A84243031
:1004E200F539E54375F00A84E5F02430F53A80DD0C
:100360000204C2E493A3F8E493A34003F68001F2ED
:1003700008DFF48029E493A3F85407240CC8C3339E
:10038000C4540F4420C8834004F456800146F6DF6D
:10039000E4800B0102040810204080900555E47EA3
:1003A000019360BCA3FF543F30E509541FFEE49362
:1003B000A360010ECF54C025E060A840B8E493A329
:1003C000FAE493A3F8E493A3C8C582C8CAC583CA54
:1003D000F0A3C8C582C8CAC583CADFE9DEE780BE0C
:010568000092
:1001B600E709F608DFFA8046E709F208DFFA803E2B
:1001C60088828C83E709F0A3DFFA8032E309F60818
:1001D600DFFA8078E309F208DFFA807088828C8380
:1001E600E309F0A3DFFA806489828A83E0A3F60834
:1001F600DFFA805889828A83E0A3F208DFFA804C0E
:1002060080D280FA80C680D4806980F280338010E4
:1002160080A680EA809A80A880DA80E280CA80334D
:1002260089828A83ECFAE493A3C8C582C8CCC583C5
:10023600CCF0A3C8C582C8CCC583CCDFE9DEE78095
:100246000D89828A83E493A3F608DFF9ECFAA9F014
:10025600EDFB2289828A83ECFAE0A3C8C582C8CC6A
:10026600C583CCF0A3C8C582C8CCC583CCDFEADE83
:10027600E880DB89828A83E493A3F208DFF980CCE5
:1002860088F0EF60010E4E60C388F0ED2402B404DE
:100296000050B9F582EB2402B4040050AF23234585
:0602A600822390020673A2
:1002AC00BB010CE58229F582E5833AF583E0225007
:1002BC0006E92582F8E622BBFE06E92582F8E22251
:0D02CC00E58229F582E5833AF583E493226B
:1002D900BC000BBE0029EF8DF084FFADF022E4CC09
:1002E900F875F008EF2FFFEE33FEEC33FCEE9DECD2
:1002F900984005FCEE9DFE0FD5F0E9E4CEFD22ED18
:10030900F8F5F0EE8420D21CFEADF075F008EF2F61
:10031900FFED33FD4007985006D5F0F222C398FD52
:050329000FD5F0EA22EF
:10032E00D083D082F8E4937012740193700DA3A35E
:10033E0093F8740193F5828883E473740293686072
:06034E00EFA3A3A380DF72
:00000001FF
